DALMIRT2015 126006491R62           WISCONSIN DEPT OF REVENUE                                                       WISCONSIN DEPT OF REVENUE                                                       P O BOX 8902                            MADISON                                 WI53708                   00002744JONATHAN SMITH                          6082662776     SMITH.JONATHAN@WISCONSIN.GOV                                                                                                           00000001          JONESOFT                                 4500 Oracle Lane                        PLEASANTVILLE                           CA90210    STEWART DANIELS                         6082662776                                                   
A20151     126006491     9 124                      WISCONSIN DEPT OF REVENUE                                                       0P O BOX 8902                            MADISON                                 WI53708     6082662776                                                                                                                                                                                                                                                                        00000002                                                                                                                                                                                                                                                   
B2015 JONE1278051120SQ0310                            000000373212000000373212000000000000000000000000000000000000000000000000000000000000000000000000000000000000000000000000000000000000000000000000000000000000000000000000000000000000000000000000 JONES, DALE R                                                                                                           742 S PERRY PKWY                                                                OREGON                                  WI53592     00000003                                                                                                                                                           036012345678902                                             00000000000000000000000055  
B2015 JAME1219099999RV0446                            000000131388000000000000000001313880000000000000000000000000000000000000000000000000000000000000000000000000000000000000000000000000000000000000000000000000000000000000000000000000000000000000 JAMES, MIRANDA                                                                                                          425 E PARK ST                                                                   MONTFORT                                WI53596     00000004                                                                                                                                                           036012345678902                                             00000000000000000000000055  
C00000002      000000000000504600000000000000373212000000000000131388000000000000000000000000000000000000000000000000000000000000000000000000000000000000000000000000000000000000000000000000000000000000000000000000000000000000000000000000000000000000000000000000000000000000000000000000000000000000000000                                                                                                                                                                                                    00000005                                                                                                                                                                                                                                                   
K00000002      000000000000504600000000000000373212000000000000131388000000000000000000000000000000000000000000000000000000000000000000000000000000000000000000000000000000000000000000000000000000000000000000000000                  000000000000000000000000000000000000                                                                                                                                                                                                                                        00000006                                                                                                                                                                                                       000000000000000000000000000000000000    55  
F00000001000000000000000000000                   00000002                                                                                                                                                                                                                                                                                                                                                                                                                                                          00000007                                                                                                                                                                                                                                                   